{
  "contractName": "SahayogiAgency",
  "abi": [
    {
      "inputs": [
        {
          "internalType": "address",
          "name": "_token",
          "type": "address"
        },
        {
          "internalType": "address",
          "name": "_FundRaisingContract",
          "type": "address"
        },
        {
          "internalType": "address",
          "name": "_admin",
          "type": "address"
        }
      ],
      "stateMutability": "nonpayable",
      "type": "constructor"
    },
    {
      "anonymous": false,
      "inputs": [
        {
          "indexed": false,
          "internalType": "uint256",
          "name": "projectId",
          "type": "uint256"
        },
        {
          "indexed": false,
          "internalType": "uint256",
          "name": "index",
          "type": "uint256"
        },
        {
          "indexed": false,
          "internalType": "address",
          "name": "account",
          "type": "address"
        },
        {
          "indexed": false,
          "internalType": "uint256",
          "name": "amount",
          "type": "uint256"
        }
      ],
      "name": "Claimed",
      "type": "event"
    },
    {
      "anonymous": false,
      "inputs": [
        {
          "indexed": false,
          "internalType": "uint256",
          "name": "projectId",
          "type": "uint256"
        },
        {
          "indexed": false,
          "internalType": "string",
          "name": "projectName",
          "type": "string"
        }
      ],
      "name": "Create",
      "type": "event"
    },
    {
      "anonymous": false,
      "inputs": [
        {
          "indexed": true,
          "internalType": "bytes32",
          "name": "role",
          "type": "bytes32"
        },
        {
          "indexed": true,
          "internalType": "bytes32",
          "name": "previousAdminRole",
          "type": "bytes32"
        },
        {
          "indexed": true,
          "internalType": "bytes32",
          "name": "newAdminRole",
          "type": "bytes32"
        }
      ],
      "name": "RoleAdminChanged",
      "type": "event"
    },
    {
      "anonymous": false,
      "inputs": [
        {
          "indexed": true,
          "internalType": "bytes32",
          "name": "role",
          "type": "bytes32"
        },
        {
          "indexed": true,
          "internalType": "address",
          "name": "account",
          "type": "address"
        },
        {
          "indexed": true,
          "internalType": "address",
          "name": "sender",
          "type": "address"
        }
      ],
      "name": "RoleGranted",
      "type": "event"
    },
    {
      "anonymous": false,
      "inputs": [
        {
          "indexed": true,
          "internalType": "bytes32",
          "name": "role",
          "type": "bytes32"
        },
        {
          "indexed": true,
          "internalType": "address",
          "name": "account",
          "type": "address"
        },
        {
          "indexed": true,
          "internalType": "address",
          "name": "sender",
          "type": "address"
        }
      ],
      "name": "RoleRevoked",
      "type": "event"
    },
    {
      "anonymous": false,
      "inputs": [
        {
          "indexed": false,
          "internalType": "uint256",
          "name": "projectId",
          "type": "uint256"
        },
        {
          "indexed": false,
          "internalType": "uint256",
          "name": "updatedFunds",
          "type": "uint256"
        }
      ],
      "name": "Update",
      "type": "event"
    },
    {
      "inputs": [],
      "name": "AGENCY_ROLE",
      "outputs": [
        {
          "internalType": "bytes32",
          "name": "",
          "type": "bytes32"
        }
      ],
      "stateMutability": "view",
      "type": "function",
      "constant": true
    },
    {
      "inputs": [],
      "name": "DEFAULT_ADMIN_ROLE",
      "outputs": [
        {
          "internalType": "bytes32",
          "name": "",
          "type": "bytes32"
        }
      ],
      "stateMutability": "view",
      "type": "function",
      "constant": true
    },
    {
      "inputs": [],
      "name": "FundRaisingContract",
      "outputs": [
        {
          "internalType": "contract FundRaising",
          "name": "",
          "type": "address"
        }
      ],
      "stateMutability": "view",
      "type": "function",
      "constant": true
    },
    {
      "inputs": [],
      "name": "bank",
      "outputs": [
        {
          "internalType": "address",
          "name": "",
          "type": "address"
        }
      ],
      "stateMutability": "view",
      "type": "function",
      "constant": true
    },
    {
      "inputs": [],
      "name": "count",
      "outputs": [
        {
          "internalType": "uint256",
          "name": "",
          "type": "uint256"
        }
      ],
      "stateMutability": "view",
      "type": "function",
      "constant": true
    },
    {
      "inputs": [
        {
          "internalType": "bytes32",
          "name": "role",
          "type": "bytes32"
        }
      ],
      "name": "getRoleAdmin",
      "outputs": [
        {
          "internalType": "bytes32",
          "name": "",
          "type": "bytes32"
        }
      ],
      "stateMutability": "view",
      "type": "function",
      "constant": true
    },
    {
      "inputs": [
        {
          "internalType": "bytes32",
          "name": "role",
          "type": "bytes32"
        },
        {
          "internalType": "address",
          "name": "account",
          "type": "address"
        }
      ],
      "name": "grantRole",
      "outputs": [],
      "stateMutability": "nonpayable",
      "type": "function"
    },
    {
      "inputs": [
        {
          "internalType": "bytes32",
          "name": "role",
          "type": "bytes32"
        },
        {
          "internalType": "address",
          "name": "account",
          "type": "address"
        }
      ],
      "name": "hasRole",
      "outputs": [
        {
          "internalType": "bool",
          "name": "",
          "type": "bool"
        }
      ],
      "stateMutability": "view",
      "type": "function",
      "constant": true
    },
    {
      "inputs": [
        {
          "internalType": "uint256",
          "name": "",
          "type": "uint256"
        }
      ],
      "name": "merkleRoot",
      "outputs": [
        {
          "internalType": "bytes32",
          "name": "",
          "type": "bytes32"
        }
      ],
      "stateMutability": "view",
      "type": "function",
      "constant": true
    },
    {
      "inputs": [
        {
          "internalType": "uint256",
          "name": "",
          "type": "uint256"
        }
      ],
      "name": "projects",
      "outputs": [
        {
          "internalType": "string",
          "name": "projectName",
          "type": "string"
        },
        {
          "internalType": "uint256",
          "name": "updatedFunds",
          "type": "uint256"
        },
        {
          "internalType": "bool",
          "name": "running",
          "type": "bool"
        }
      ],
      "stateMutability": "view",
      "type": "function",
      "constant": true
    },
    {
      "inputs": [
        {
          "internalType": "bytes32",
          "name": "role",
          "type": "bytes32"
        },
        {
          "internalType": "address",
          "name": "account",
          "type": "address"
        }
      ],
      "name": "renounceRole",
      "outputs": [],
      "stateMutability": "nonpayable",
      "type": "function"
    },
    {
      "inputs": [
        {
          "internalType": "bytes32",
          "name": "role",
          "type": "bytes32"
        },
        {
          "internalType": "address",
          "name": "account",
          "type": "address"
        }
      ],
      "name": "revokeRole",
      "outputs": [],
      "stateMutability": "nonpayable",
      "type": "function"
    },
    {
      "inputs": [
        {
          "internalType": "bytes4",
          "name": "interfaceId",
          "type": "bytes4"
        }
      ],
      "name": "supportsInterface",
      "outputs": [
        {
          "internalType": "bool",
          "name": "",
          "type": "bool"
        }
      ],
      "stateMutability": "view",
      "type": "function",
      "constant": true
    },
    {
      "inputs": [],
      "name": "token",
      "outputs": [
        {
          "internalType": "address",
          "name": "",
          "type": "address"
        }
      ],
      "stateMutability": "view",
      "type": "function",
      "constant": true
    },
    {
      "inputs": [
        {
          "internalType": "address",
          "name": "_account",
          "type": "address"
        }
      ],
      "name": "addAgency",
      "outputs": [],
      "stateMutability": "nonpayable",
      "type": "function"
    },
    {
      "inputs": [
        {
          "internalType": "string",
          "name": "_projectName",
          "type": "string"
        }
      ],
      "name": "createProject",
      "outputs": [],
      "stateMutability": "nonpayable",
      "type": "function"
    },
    {
      "inputs": [
        {
          "internalType": "uint256",
          "name": "_id",
          "type": "uint256"
        },
        {
          "internalType": "uint256",
          "name": "_projectId",
          "type": "uint256"
        }
      ],
      "name": "claimFunds",
      "outputs": [],
      "stateMutability": "nonpayable",
      "type": "function"
    },
    {
      "inputs": [
        {
          "internalType": "uint256",
          "name": "projectId",
          "type": "uint256"
        },
        {
          "internalType": "uint256",
          "name": "index",
          "type": "uint256"
        },
        {
          "internalType": "address",
          "name": "account",
          "type": "address"
        },
        {
          "internalType": "uint256",
          "name": "amount",
          "type": "uint256"
        },
        {
          "internalType": "bytes32[]",
          "name": "merkleProof",
          "type": "bytes32[]"
        }
      ],
      "name": "claim",
      "outputs": [],
      "stateMutability": "nonpayable",
      "type": "function"
    },
    {
      "inputs": [
        {
          "internalType": "uint256",
          "name": "projectId",
          "type": "uint256"
        },
        {
          "internalType": "uint256",
          "name": "index",
          "type": "uint256"
        }
      ],
      "name": "isClaimed",
      "outputs": [
        {
          "internalType": "bool",
          "name": "",
          "type": "bool"
        }
      ],
      "stateMutability": "view",
      "type": "function",
      "constant": true
    },
    {
      "inputs": [
        {
          "internalType": "uint256",
          "name": "_projectId",
          "type": "uint256"
        },
        {
          "internalType": "bytes32",
          "name": "_newMerkleRoot",
          "type": "bytes32"
        }
      ],
      "name": "updateMerkleRoot",
      "outputs": [],
      "stateMutability": "nonpayable",
      "type": "function"
    },
    {
      "inputs": [
        {
          "internalType": "uint256",
          "name": "amount",
          "type": "uint256"
        }
      ],
      "name": "withdrawToken",
      "outputs": [],
      "stateMutability": "nonpayable",
      "type": "function"
    }
  ],
  "bytecode": "0x60806040523480156200001157600080fd5b50604051620028de380380620028de83398181016040528101906200003791906200030f565b730a098eda01ce92ff4a4ccb7a4fffb5a43ebc70dc600460006101000a81548173ffffffffffffffffffffffffffffffffffffffff021916908373ffffffffffffffffffffffffffffffffffffffff16021790555081600260006101000a81548173ffffffffffffffffffffffffffffffffffffffff021916908373ffffffffffffffffffffffffffffffffffffffff160217905550620000e26000801b826200012c60201b60201c565b82600560006101000a81548173ffffffffffffffffffffffffffffffffffffffff021916908373ffffffffffffffffffffffffffffffffffffffff1602179055505050506200036b565b6200013e82826200014260201b60201c565b5050565b6200015482826200023360201b60201c565b6200022f57600160008084815260200190815260200160002060000160008373ffffffffffffffffffffffffffffffffffffffff1673ffffffffffffffffffffffffffffffffffffffff16815260200190815260200160002060006101000a81548160ff021916908315150217905550620001d46200029d60201b60201c565b73ffffffffffffffffffffffffffffffffffffffff168173ffffffffffffffffffffffffffffffffffffffff16837f2f8788117e7eff1d82e926ec794901d17c78024a50270940304540a733656f0d60405160405180910390a45b5050565b600080600084815260200190815260200160002060000160008373ffffffffffffffffffffffffffffffffffffffff1673ffffffffffffffffffffffffffffffffffffffff16815260200190815260200160002060009054906101000a900460ff16905092915050565b600033905090565b600080fd5b600073ffffffffffffffffffffffffffffffffffffffff82169050919050565b6000620002d782620002aa565b9050919050565b620002e981620002ca565b8114620002f557600080fd5b50565b6000815190506200030981620002de565b92915050565b6000806000606084860312156200032b576200032a620002a5565b5b60006200033b86828701620002f8565b93505060206200034e86828701620002f8565b92505060406200036186828701620002f8565b9150509250925092565b612563806200037b6000396000f3fe608060405234801561001057600080fd5b50600436106101375760003560e01c806350baa622116100b8578063b6daea6c1161007c578063b6daea6c1461034e578063d547741f1461036a578063f1e3311514610386578063f364c90c146103a2578063f81fb4dd146103d2578063fc0c546a146103f057610137565b806350baa622146102aa5780635d4df3bf146102c657806376cdb03b146102e257806391d1485414610300578063a217fddf1461033057610137565b8063248a9ca3116100ff578063248a9ca3146101f45780632f2ff15d1461022457806336568abe146102405780633c70b3571461025c5780634d0adefd1461028c57610137565b8063010b58ee1461013c57806301ffc9a71461015857806306661abd14610188578063107046bd146101a657806315ee4df1146101d8575b600080fd5b6101566004803603810190610151919061159d565b61040e565b005b610172600480360381019061016d9190611635565b610573565b60405161017f919061167d565b60405180910390f35b6101906105ed565b60405161019d91906116a7565b60405180910390f35b6101c060048036038101906101bb91906116c2565b6105f3565b6040516101cf93929190611788565b60405180910390f35b6101f260048036038101906101ed919061182b565b6106b2565b005b61020e600480360381019061020991906118ae565b610838565b60405161021b91906118ea565b60405180910390f35b61023e60048036038101906102399190611963565b610857565b005b61025a60048036038101906102559190611963565b610880565b005b610276600480360381019061027191906116c2565b610903565b60405161028391906118ea565b60405180910390f35b61029461091b565b6040516102a191906118ea565b60405180910390f35b6102c460048036038101906102bf91906116c2565b61093f565b005b6102e060048036038101906102db91906119f9565b6109f2565b005b6102ea610c09565b6040516102f79190611aa2565b60405180910390f35b61031a60048036038101906103159190611963565b610c2f565b604051610327919061167d565b60405180910390f35b610338610c99565b60405161034591906118ea565b60405180910390f35b61036860048036038101906103639190611abd565b610ca0565b005b610384600480360381019061037f9190611963565b610d19565b005b6103a0600480360381019061039b9190611aea565b610d42565b005b6103bc60048036038101906103b7919061159d565b610dc7565b6040516103c9919061167d565b60405180910390f35b6103da610e2f565b6040516103e79190611b89565b60405180910390f35b6103f8610e55565b6040516104059190611aa2565b60405180910390f35b6104387f95ecd50786af45ce6b701c5289aa57cf8909047eb4a0bcdb59129c5ba4ed4ebf33610c2f565b610477576040517f08c379a000000000000000000000000000000000000000000000000000000000815260040161046e90611bf0565b60405180910390fd5b60006001600083815260200190815260200160002090508060020160009054906101000a900460ff166104df576040517f08c379a00000000000000000000000000000000000000000000000000000000081526004016104d690611c5c565b60405180910390fd5b600260009054906101000a900473ffffffffffffffffffffffffffffffffffffffff1673ffffffffffffffffffffffffffffffffffffffff1663c349026384846040518363ffffffff1660e01b815260040161053c929190611c7c565b600060405180830381600087803b15801561055657600080fd5b505af115801561056a573d6000803e3d6000fd5b50505050505050565b60007f7965db0b000000000000000000000000000000000000000000000000000000007bffffffffffffffffffffffffffffffffffffffffffffffffffffffff1916827bffffffffffffffffffffffffffffffffffffffffffffffffffffffff191614806105e657506105e582610e7b565b5b9050919050565b60035481565b600160205280600052604060002060009150905080600001805461061690611cd4565b80601f016020809104026020016040519081016040528092919081815260200182805461064290611cd4565b801561068f5780601f106106645761010080835404028352916020019161068f565b820191906000526020600020905b81548152906001019060200180831161067257829003601f168201915b5050505050908060010154908060020160009054906101000a900460ff16905083565b6106dc7f95ecd50786af45ce6b701c5289aa57cf8909047eb4a0bcdb59129c5ba4ed4ebf33610c2f565b61071b576040517f08c379a000000000000000000000000000000000000000000000000000000000815260040161071290611bf0565b60405180910390fd5b60016003600082825461072e9190611d35565b92505081905550604051806060016040528083838080601f016020809104026020016040519081016040528093929190818152602001838380828437600081840152601f19601f820116905080830192505050505050508152602001600081526020016001151581525060016000600354815260200190815260200160002060008201518160000190805190602001906107c99291906114ba565b506020820151816001015560408201518160020160006101000a81548160ff0219169083151502179055509050507fbba37318c149b1db7d49c422b47f2a61ba899714cb9c7377168ec21d7edfaae1600354838360405161082c93929190611dc7565b60405180910390a15050565b6000806000838152602001908152602001600020600101549050919050565b61086082610838565b6108718161086c610ee5565b610eed565b61087b8383610f8a565b505050565b610888610ee5565b73ffffffffffffffffffffffffffffffffffffffff168173ffffffffffffffffffffffffffffffffffffffff16146108f5576040517f08c379a00000000000000000000000000000000000000000000000000000000081526004016108ec90611e6b565b60405180910390fd5b6108ff828261106a565b5050565b60066020528060005260406000206000915090505481565b7f95ecd50786af45ce6b701c5289aa57cf8909047eb4a0bcdb59129c5ba4ed4ebf81565b600560009054906101000a900473ffffffffffffffffffffffffffffffffffffffff1673ffffffffffffffffffffffffffffffffffffffff1663a9059cbb33836040518363ffffffff1660e01b815260040161099c929190611e8b565b602060405180830381600087803b1580156109b657600080fd5b505af11580156109ca573d6000803e3d6000fd5b505050506040513d601f19601f820116820180604052508101906109ee9190611ee0565b5050565b6109fc8686610dc7565b15610a3c576040517f08c379a0000000000000000000000000000000000000000000000000000000008152600401610a3390611f7f565b60405180910390fd5b6000858585604051602001610a5393929190612008565b604051602081830303815290604052805190602001209050610aca838380806020026020016040519081016040528093929190818152602001838360200280828437600081840152601f19601f82011690508083019250505050505050600660008a8152602001908152602001600020548361114b565b610b09576040517f08c379a0000000000000000000000000000000000000000000000000000000008152600401610b00906120b7565b60405180910390fd5b610b138787611201565b600560009054906101000a900473ffffffffffffffffffffffffffffffffffffffff1673ffffffffffffffffffffffffffffffffffffffff1663a9059cbb86866040518363ffffffff1660e01b8152600401610b70929190611e8b565b602060405180830381600087803b158015610b8a57600080fd5b505af1158015610b9e573d6000803e3d6000fd5b505050506040513d601f19601f82011682018060405250810190610bc29190611ee0565b507fb94bf7f9302edf52a596286915a69b4b0685574cffdedd0712e3c62f2550f0ba87878787604051610bf894939291906120d7565b60405180910390a150505050505050565b600460009054906101000a900473ffffffffffffffffffffffffffffffffffffffff1681565b600080600084815260200190815260200160002060000160008373ffffffffffffffffffffffffffffffffffffffff1673ffffffffffffffffffffffffffffffffffffffff16815260200190815260200160002060009054906101000a900460ff16905092915050565b6000801b81565b610cad6000801b33610c2f565b610cec576040517f08c379a0000000000000000000000000000000000000000000000000000000008152600401610ce390612168565b60405180910390fd5b610d167f95ecd50786af45ce6b701c5289aa57cf8909047eb4a0bcdb59129c5ba4ed4ebf82610857565b50565b610d2282610838565b610d3381610d2e610ee5565b610eed565b610d3d838361106a565b505050565b610d6c7f95ecd50786af45ce6b701c5289aa57cf8909047eb4a0bcdb59129c5ba4ed4ebf33610c2f565b610dab576040517f08c379a0000000000000000000000000000000000000000000000000000000008152600401610da290611bf0565b60405180910390fd5b8060066000848152602001908152602001600020819055505050565b60008061010083610dd891906121b7565b9050600061010084610dea91906121e8565b905060006007600087815260200190815260200160002060008481526020019081526020016000205490506000826001901b9050808183161494505050505092915050565b600260009054906101000a900473ffffffffffffffffffffffffffffffffffffffff1681565b600560009054906101000a900473ffffffffffffffffffffffffffffffffffffffff1681565b60007f01ffc9a7000000000000000000000000000000000000000000000000000000007bffffffffffffffffffffffffffffffffffffffffffffffffffffffff1916827bffffffffffffffffffffffffffffffffffffffffffffffffffffffff1916149050919050565b600033905090565b610ef78282610c2f565b610f8657610f1c8173ffffffffffffffffffffffffffffffffffffffff16601461127e565b610f2a8360001c602061127e565b604051602001610f3b9291906122ed565b6040516020818303038152906040526040517f08c379a0000000000000000000000000000000000000000000000000000000008152600401610f7d9190612327565b60405180910390fd5b5050565b610f948282610c2f565b61106657600160008084815260200190815260200160002060000160008373ffffffffffffffffffffffffffffffffffffffff1673ffffffffffffffffffffffffffffffffffffffff16815260200190815260200160002060006101000a81548160ff02191690831515021790555061100b610ee5565b73ffffffffffffffffffffffffffffffffffffffff168173ffffffffffffffffffffffffffffffffffffffff16837f2f8788117e7eff1d82e926ec794901d17c78024a50270940304540a733656f0d60405160405180910390a45b5050565b6110748282610c2f565b1561114757600080600084815260200190815260200160002060000160008373ffffffffffffffffffffffffffffffffffffffff1673ffffffffffffffffffffffffffffffffffffffff16815260200190815260200160002060006101000a81548160ff0219169083151502179055506110ec610ee5565b73ffffffffffffffffffffffffffffffffffffffff168173ffffffffffffffffffffffffffffffffffffffff16837ff6391f5c32d9c69d2a47ea670b442974b53935d1edc7fd64eb21e047a839171b60405160405180910390a45b5050565b60008082905060005b85518110156111f357600086828151811061117257611171612349565b5b602002602001015190508083116111b3578281604051602001611196929190612399565b6040516020818303038152906040528051906020012092506111df565b80836040516020016111c6929190612399565b6040516020818303038152906040528051906020012092505b5080806111eb906123c5565b915050611154565b508381149150509392505050565b60006101008261121191906121b7565b905060006101008361122391906121e8565b9050806001901b60076000868152602001908152602001600020600084815260200190815260200160002054176007600086815260200190815260200160002060008481526020019081526020016000208190555050505050565b606060006002836002611291919061240e565b61129b9190611d35565b67ffffffffffffffff8111156112b4576112b3612468565b5b6040519080825280601f01601f1916602001820160405280156112e65781602001600182028036833780820191505090505b5090507f30000000000000000000000000000000000000000000000000000000000000008160008151811061131e5761131d612349565b5b60200101907effffffffffffffffffffffffffffffffffffffffffffffffffffffffffffff1916908160001a9053507f78000000000000000000000000000000000000000000000000000000000000008160018151811061138257611381612349565b5b60200101907effffffffffffffffffffffffffffffffffffffffffffffffffffffffffffff1916908160001a905350600060018460026113c2919061240e565b6113cc9190611d35565b90505b600181111561146c577f3031323334353637383961626364656600000000000000000000000000000000600f86166010811061140e5761140d612349565b5b1a60f81b82828151811061142557611424612349565b5b60200101907effffffffffffffffffffffffffffffffffffffffffffffffffffffffffffff1916908160001a905350600485901c94508061146590612497565b90506113cf565b50600084146114b0576040517f08c379a00000000000000000000000000000000000000000000000000000000081526004016114a79061250d565b60405180910390fd5b8091505092915050565b8280546114c690611cd4565b90600052602060002090601f0160209004810192826114e8576000855561152f565b82601f1061150157805160ff191683800117855561152f565b8280016001018555821561152f579182015b8281111561152e578251825591602001919060010190611513565b5b50905061153c9190611540565b5090565b5b80821115611559576000816000905550600101611541565b5090565b600080fd5b600080fd5b6000819050919050565b61157a81611567565b811461158557600080fd5b50565b60008135905061159781611571565b92915050565b600080604083850312156115b4576115b361155d565b5b60006115c285828601611588565b92505060206115d385828601611588565b9150509250929050565b60007fffffffff0000000000000000000000000000000000000000000000000000000082169050919050565b611612816115dd565b811461161d57600080fd5b50565b60008135905061162f81611609565b92915050565b60006020828403121561164b5761164a61155d565b5b600061165984828501611620565b91505092915050565b60008115159050919050565b61167781611662565b82525050565b6000602082019050611692600083018461166e565b92915050565b6116a181611567565b82525050565b60006020820190506116bc6000830184611698565b92915050565b6000602082840312156116d8576116d761155d565b5b60006116e684828501611588565b91505092915050565b600081519050919050565b600082825260208201905092915050565b60005b8381101561172957808201518184015260208101905061170e565b83811115611738576000848401525b50505050565b6000601f19601f8301169050919050565b600061175a826116ef565b61176481856116fa565b935061177481856020860161170b565b61177d8161173e565b840191505092915050565b600060608201905081810360008301526117a2818661174f565b90506117b16020830185611698565b6117be604083018461166e565b949350505050565b600080fd5b600080fd5b600080fd5b60008083601f8401126117eb576117ea6117c6565b5b8235905067ffffffffffffffff811115611808576118076117cb565b5b602083019150836001820283011115611824576118236117d0565b5b9250929050565b600080602083850312156118425761184161155d565b5b600083013567ffffffffffffffff8111156118605761185f611562565b5b61186c858286016117d5565b92509250509250929050565b6000819050919050565b61188b81611878565b811461189657600080fd5b50565b6000813590506118a881611882565b92915050565b6000602082840312156118c4576118c361155d565b5b60006118d284828501611899565b91505092915050565b6118e481611878565b82525050565b60006020820190506118ff60008301846118db565b92915050565b600073ffffffffffffffffffffffffffffffffffffffff82169050919050565b600061193082611905565b9050919050565b61194081611925565b811461194b57600080fd5b50565b60008135905061195d81611937565b92915050565b6000806040838503121561197a5761197961155d565b5b600061198885828601611899565b92505060206119998582860161194e565b9150509250929050565b60008083601f8401126119b9576119b86117c6565b5b8235905067ffffffffffffffff8111156119d6576119d56117cb565b5b6020830191508360208202830111156119f2576119f16117d0565b5b9250929050565b60008060008060008060a08789031215611a1657611a1561155d565b5b6000611a2489828a01611588565b9650506020611a3589828a01611588565b9550506040611a4689828a0161194e565b9450506060611a5789828a01611588565b935050608087013567ffffffffffffffff811115611a7857611a77611562565b5b611a8489828a016119a3565b92509250509295509295509295565b611a9c81611925565b82525050565b6000602082019050611ab76000830184611a93565b92915050565b600060208284031215611ad357611ad261155d565b5b6000611ae18482850161194e565b91505092915050565b60008060408385031215611b0157611b0061155d565b5b6000611b0f85828601611588565b9250506020611b2085828601611899565b9150509250929050565b6000819050919050565b6000611b4f611b4a611b4584611905565b611b2a565b611905565b9050919050565b6000611b6182611b34565b9050919050565b6000611b7382611b56565b9050919050565b611b8381611b68565b82525050565b6000602082019050611b9e6000830184611b7a565b92915050565b7f53414841594f47493a204d555354204245204147454e43590000000000000000600082015250565b6000611bda6018836116fa565b9150611be582611ba4565b602082019050919050565b60006020820190508181036000830152611c0981611bcd565b9050919050565b7f50726f6a656374206973206e6f7420617661696c61626c650000000000000000600082015250565b6000611c466018836116fa565b9150611c5182611c10565b602082019050919050565b60006020820190508181036000830152611c7581611c39565b9050919050565b6000604082019050611c916000830185611698565b611c9e6020830184611698565b9392505050565b7f4e487b7100000000000000000000000000000000000000000000000000000000600052602260045260246000fd5b60006002820490506001821680611cec57607f821691505b60208210811415611d0057611cff611ca5565b5b50919050565b7f4e487b7100000000000000000000000000000000000000000000000000000000600052601160045260246000fd5b6000611d4082611567565b9150611d4b83611567565b9250827fffffffffffffffffffffffffffffffffffffffffffffffffffffffffffffffff03821115611d8057611d7f611d06565b5b828201905092915050565b82818337600083830152505050565b6000611da683856116fa565b9350611db3838584611d8b565b611dbc8361173e565b840190509392505050565b6000604082019050611ddc6000830186611698565b8181036020830152611def818486611d9a565b9050949350505050565b7f416363657373436f6e74726f6c3a2063616e206f6e6c792072656e6f756e636560008201527f20726f6c657320666f722073656c660000000000000000000000000000000000602082015250565b6000611e55602f836116fa565b9150611e6082611df9565b604082019050919050565b60006020820190508181036000830152611e8481611e48565b9050919050565b6000604082019050611ea06000830185611a93565b611ead6020830184611698565b9392505050565b611ebd81611662565b8114611ec857600080fd5b50565b600081519050611eda81611eb4565b92915050565b600060208284031215611ef657611ef561155d565b5b6000611f0484828501611ecb565b91505092915050565b7f4d65726b6c654469737472696275746f723a2044726f7020616c72656164792060008201527f636c61696d65642e000000000000000000000000000000000000000000000000602082015250565b6000611f696028836116fa565b9150611f7482611f0d565b604082019050919050565b60006020820190508181036000830152611f9881611f5c565b9050919050565b6000819050919050565b611fba611fb582611567565b611f9f565b82525050565b60008160601b9050919050565b6000611fd882611fc0565b9050919050565b6000611fea82611fcd565b9050919050565b612002611ffd82611925565b611fdf565b82525050565b60006120148286611fa9565b6020820191506120248285611ff1565b6014820191506120348284611fa9565b602082019150819050949350505050565b7f4d65726b6c654469737472696275746f723a20496e76616c69642070726f6f6660008201527f2e00000000000000000000000000000000000000000000000000000000000000602082015250565b60006120a16021836116fa565b91506120ac82612045565b604082019050919050565b600060208201905081810360008301526120d081612094565b9050919050565b60006080820190506120ec6000830187611698565b6120f96020830186611698565b6121066040830185611a93565b6121136060830184611698565b95945050505050565b7f53414841594f47493a204d5553542042452041444d494e000000000000000000600082015250565b60006121526017836116fa565b915061215d8261211c565b602082019050919050565b6000602082019050818103600083015261218181612145565b9050919050565b7f4e487b7100000000000000000000000000000000000000000000000000000000600052601260045260246000fd5b60006121c282611567565b91506121cd83611567565b9250826121dd576121dc612188565b5b828204905092915050565b60006121f382611567565b91506121fe83611567565b92508261220e5761220d612188565b5b828206905092915050565b600081905092915050565b7f416363657373436f6e74726f6c3a206163636f756e7420000000000000000000600082015250565b600061225a601783612219565b915061226582612224565b601782019050919050565b600061227b826116ef565b6122858185612219565b935061229581856020860161170b565b80840191505092915050565b7f206973206d697373696e6720726f6c6520000000000000000000000000000000600082015250565b60006122d7601183612219565b91506122e2826122a1565b601182019050919050565b60006122f88261224d565b91506123048285612270565b915061230f826122ca565b915061231b8284612270565b91508190509392505050565b60006020820190508181036000830152612341818461174f565b905092915050565b7f4e487b7100000000000000000000000000000000000000000000000000000000600052603260045260246000fd5b6000819050919050565b61239361238e82611878565b612378565b82525050565b60006123a58285612382565b6020820191506123b58284612382565b6020820191508190509392505050565b60006123d082611567565b91507fffffffffffffffffffffffffffffffffffffffffffffffffffffffffffffffff82141561240357612402611d06565b5b600182019050919050565b600061241982611567565b915061242483611567565b9250817fffffffffffffffffffffffffffffffffffffffffffffffffffffffffffffffff048311821515161561245d5761245c611d06565b5b828202905092915050565b7f4e487b7100000000000000000000000000000000000000000000000000000000600052604160045260246000fd5b60006124a282611567565b915060008214156124b6576124b5611d06565b5b600182039050919050565b7f537472696e67733a20686578206c656e67746820696e73756666696369656e74600082015250565b60006124f76020836116fa565b9150612502826124c1565b602082019050919050565b60006020820190508181036000830152612526816124ea565b905091905056fea2646970667358221220155bed60a506f987e6649e700bc9d656ac17a7220f6aadf73ab40353166c301864736f6c63430008090033",
  "immutableReferences": {},
  "source": "// SPDX-License-Identifier: MIT\npragma solidity >=0.4.22 <0.9.0;\n\nimport \"./SahayogiToken.sol\";\nimport \"./FundRaising.sol\";\nimport \"@openzeppelin/contracts/access/AccessControl.sol\";\nimport \"@openzeppelin/contracts/utils/cryptography/MerkleProof.sol\";\nimport \"@openzeppelin/contracts/token/ERC20/IERC20.sol\";\nimport \"./interfaces/IMerkleDistributor.sol\";\n\n\ncontract SahayogiAgency is AccessControl, IMerkleDistributor {\n\n  bytes32 public constant AGENCY_ROLE = keccak256(\"AGENCY\");\n\n   event Create(\n       uint256 projectId,\n       string projectName\n  \n   );\n   event Update (\n       uint256 projectId,\n       uint256 updatedFunds\n   );\n\n    struct Project {\n        \n        string  projectName;\n        // address[] vendor;\n        // uint256 initialFund;\n        uint256 updatedFunds;\n        bool running;\n    }\n\n    //id=>Project\n    mapping(uint256 => Project) public projects;\n    \n    //calling admin contract \n    FundRaising public FundRaisingContract;\n\n    uint256 public count;\n    address public bank;\n    //address of token  \n    // SahayogiToken public token;;\n    address public override token;\n    //projectid=>merkle root \n    mapping(uint256 => bytes32) public override merkleRoot;\n   \n    \n    constructor(\n        // SahayogiToken _erc20, \n        address _token,\n        address _FundRaisingContract, \n        address _admin\n        ){\n        bank = 0x0A098Eda01Ce92ff4A4CCb7A4fFFb5A43EBC70DC;\n        FundRaisingContract =  FundRaising(_FundRaisingContract); \n        _setupRole(DEFAULT_ADMIN_ROLE,_admin);  \n        token = _token;  \n    }\n  \n    modifier OnlyAdmin() {\n        require(hasRole(DEFAULT_ADMIN_ROLE, msg.sender), \"SAHAYOGI: MUST BE ADMIN\");\n        _;\n    }\n     modifier OnlyAgency() {\n        require(hasRole(AGENCY_ROLE, msg.sender), \"SAHAYOGI: MUST BE AGENCY\");\n        _;\n    }\n     //add aidAgency \n    function addAgency(address _account) public OnlyAdmin {\n        grantRole(AGENCY_ROLE, _account);\n    }\n\n    //project List\n    //check if project exist or not\n    //assign budgets to project\n   \n    //merkle distributor implementaion\n    //diff merkle for different projects\n    //after funding ends fund nikalnu\n\n    //FUNCTIONS\n    function createProject(\n      // address[] _vendor,\n        string calldata _projectName\n        // uint256 _totalFunds\n    ) public OnlyAgency {\n        count += 1;\n        projects[count] = Project({\n            projectName:_projectName,\n            updatedFunds:0,\n            // totalFunds:_totalFunds,\n            running: true\n        });\n        emit Create(count, _projectName);\n    }\n    \n    function claimFunds(uint256 _id, uint256 _projectId) public OnlyAgency {\n    Project storage project = projects[_projectId];\n     require(project.running,\"Project is not available\");\n         return FundRaisingContract.claim(_id,_projectId);\n     }\n\n   //MERKLEDISTRIBUTOR\n\n   // This is a packed array of booleans for verifying the claims.\n    mapping(uint256 =>mapping(uint256 => uint256)) private claimedBitMap;\n\n    ///@dev set claim for the given index\n    function _setClaimed(uint256 projectId,uint256 index) internal {\n        uint256 claimedWordIndex = index / 256;\n        uint256 claimedBitIndex = index % 256;\n        claimedBitMap[projectId][claimedWordIndex] = claimedBitMap[projectId][claimedWordIndex] | (1 << claimedBitIndex);\n    }\n\n    ///@dev called by the user to claim the token\n    ///@param index sequential index \n    ///@param account account of the claim address\n    ///@param amount amount of claim \n    ///@param merkleProof merkleProof for the claim of the account\n    function claim(uint256 projectId,uint256 index, address account, uint256 amount, bytes32[] calldata merkleProof) external override {\n        require(!isClaimed(projectId,index), 'MerkleDistributor: Drop already claimed.');\n\n        // Verify the merkle proof.\n        bytes32 node = keccak256(abi.encodePacked(index, account, amount));\n        require(MerkleProof.verify(merkleProof,merkleRoot[projectId], node), 'MerkleDistributor: Invalid proof.');\n\n        // Mark it claimed and send the token.\n        _setClaimed(projectId,index);\n        IERC20(token).transfer(account, amount);\n\n        emit Claimed(projectId,index, account, amount);\n    }\n\n    ///@dev look if already claimed or not for the index\n    ///@param index index of the token\n    function isClaimed(uint256 projectId,uint256 index) public view override returns (bool) {\n        uint256 claimedWordIndex = index / 256;\n        uint256 claimedBitIndex = index % 256;\n        uint256 claimedWord = claimedBitMap[projectId][claimedWordIndex];\n        uint256 mask = (1 << claimedBitIndex);\n        return claimedWord & mask == mask;\n    }\n\n    ///@dev update merkle root \n    ///@param _newMerkleRoot new merkle root for the distribution\n    function updateMerkleRoot(uint256 _projectId,bytes32 _newMerkleRoot) external OnlyAgency{\n        merkleRoot[_projectId] = _newMerkleRoot;\n    }\n\n    ///@dev called by the owner of the contract to rescue the token from the contract\n    ///@param amount amount of token to withdraw\n    function withdrawToken(uint256 amount) external {\n        IERC20(token).transfer(msg.sender, amount);\n    }\n   \n  \n}\n",
  "sourcePath": "/home/anisha/Desktop/sahayogi/contracts/SahayogiAgency.sol",
  "compiler": {
    "name": "solc",
    "version": "0.8.9+commit.e5eed63a.Emscripten.clang"
  },
  "schemaVersion": "3.4.4",
  "updatedAt": "2022-03-02T14:24:35.925Z",
  "networkType": "ethereum",
  "devdoc": {
    "kind": "dev",
    "methods": {
      "claim(uint256,uint256,address,uint256,bytes32[])": {
        "details": "called by the user to claim the token",
        "params": {
          "account": "account of the claim address",
          "amount": "amount of claim ",
          "index": "sequential index ",
          "merkleProof": "merkleProof for the claim of the account"
        }
      },
      "getRoleAdmin(bytes32)": {
        "details": "Returns the admin role that controls `role`. See {grantRole} and {revokeRole}. To change a role's admin, use {_setRoleAdmin}."
      },
      "grantRole(bytes32,address)": {
        "details": "Grants `role` to `account`. If `account` had not been already granted `role`, emits a {RoleGranted} event. Requirements: - the caller must have ``role``'s admin role."
      },
      "hasRole(bytes32,address)": {
        "details": "Returns `true` if `account` has been granted `role`."
      },
      "isClaimed(uint256,uint256)": {
        "details": "look if already claimed or not for the index",
        "params": {
          "index": "index of the token"
        }
      },
      "renounceRole(bytes32,address)": {
        "details": "Revokes `role` from the calling account. Roles are often managed via {grantRole} and {revokeRole}: this function's purpose is to provide a mechanism for accounts to lose their privileges if they are compromised (such as when a trusted device is misplaced). If the calling account had been granted `role`, emits a {RoleRevoked} event. Requirements: - the caller must be `account`."
      },
      "revokeRole(bytes32,address)": {
        "details": "Revokes `role` from `account`. If `account` had been granted `role`, emits a {RoleRevoked} event. Requirements: - the caller must have ``role``'s admin role."
      },
      "supportsInterface(bytes4)": {
        "details": "See {IERC165-supportsInterface}."
      },
      "updateMerkleRoot(uint256,bytes32)": {
        "details": "update merkle root ",
        "params": {
          "_newMerkleRoot": "new merkle root for the distribution"
        }
      },
      "withdrawToken(uint256)": {
        "details": "called by the owner of the contract to rescue the token from the contract",
        "params": {
          "amount": "amount of token to withdraw"
        }
      }
    },
    "version": 1
  },
  "userdoc": {
    "kind": "user",
    "methods": {},
    "version": 1
  }
}